:100000000C94010F0C942E0F0C942E0F0C942E0FA9
:100010000C942E0F0C942E0F0C942E0F0C942E0F6C
:100020000C942E0F0C942E0F0C942E0F0C942E0F5C
:100030000C942E0F0C9484E60C942E0F0C942E0F1F
:100040000C942E0F0C9485650C942E0F0C942E0F8F
:100050000C942E0F0C942E0F0C941D900C941FE3F7
:100060000C942E0F0C94FC140C942E0F0C942E0F49
:100070000C942E0F0C942E0F0C942E0F0C942E0F0C
:100080000C942E0F0C942E0F0C942E0F0C942E0FFC
:100090000C942E0F0C942E0F0C942E0F0C94A6DFA4
:1000A0000C942E0F0C942E0F0C942E0F0C942E0FDC
:1000B0000C942E0F0C942E0F0C942E0F0C942E0FCC
:1000C0000C942E0F0C942E0F0C942E0F0C942E0FBC
:1000D0000C942E0F0C942E0F0C942E0F0C942E0FAC
:1000E0000C942E0F084AD73B3BCE016E84BCBFFD5B
:1000F000C12F3D6C74319ABD56833DDA3D00C77FF8
:1001000011BED9E4BB4C3E916BAAAABE0000008090
:100110003F05A84CCDB2D44EB93836A9020C50B91F
:10012000918688083CA6AAAA2ABE000000803F4506
:1001300072726F723A006563686F3A0053544F50A1
:100140005045442E20005072696E7465722073749D
:100150006F707065642064756520746F20657272BD
:100160006F72732E204669782074686520657272FC
:100170006F7220616E6420757365204D39393920A6
:10018000746F20726573746172742E202854656DCB
:10019000706572617475726520697320726573652C
:1001A000742E205365742069742061667465722012
:1001B00072657374617274696E6729004B494C4CA7
:1001C00045442E20005072696E7465722068616C1F
:1001D0007465642E206B696C6C28292063616C6CDB
:1001E000656421006F6B00526573656E643A200090
:1001F0002200556E6B6E6F776E20636F6D6D616E52
:10020000643A202200536C6565702E2E2E00FFFF8D
:10021000FF00004D4300006143000025430000A0A3
:10022000400000A04000000040000000000000006E
:1002300000000000000000000000000000000000BE
:100240000000004D43000061430000254348656CF9
:100250006C6F426565507275736120726561647977
:100260002E00526573756D696E67207072696E74C9
:10027000005761697420666F7220757365722E2E47
:100280002E004E6F206D6F76652E00456E642066E1
:10029000696C65206C69737400426567696E2066DD
:1002A000696C65206C697374002569206D696E2C1A
:1002B00020256920736563002042403A0020403ABF
:1002C00000202F003A00205400202F0020423A0046
:1002D000202F006F6B20543A0048656174696E6787
:1002E00020646F6E652E0020573A0020453A005476
:1002F0003A0048656174696E672E2E2E004265646F
:1003000020646F6E652E0020423A0020453A00546A
:100310003A004265642048656174696E672E004842
:10032000656C6C6F4265655072757361204F6666CF
:100330002E004649524D574152455F4E414D453A78
:100340004D61726C696E2056313B20537072696E3C
:100350007465722F6772626C206D617368757020AE
:10036000666F722067656E36204649524D5741527E
:10037000455F55524C3A68747470733A2F2F676911
:10038000746875622E636F6D2F4D61726C696E4675
:1003900069726D776172652F4D61726C696E205064
:1003A000524F544F434F4C5F56455253494F4E3A6C
:1003B000312E30204D414348494E455F54595045F8
:1003C0003A48656C6C6F4265655072757361204583
:1003D000585452554445525F434F554E543A32207B
:1003E000555549443A30303030303030302D30308F
:1003F00030302D303030302D303030302D30303006
:100400003030303030303030300A00205A3A00205E
:10041000593A0020436F756E7420583A20002045E9
:100420003A00205A3A0020593A00583A007A5F6D53
:1004300061783A20007A5F6D696E3A2000795F6DCD
:1004400061783A2000795F6D696E3A2000785F6DBF
:1004500061783A2000785F6D696E3A2000536574C8
:1004600074696E672054726176656C2041636365C0
:100470006C65726174696F6E3A20005365747469BB
:100480006E67205265747261637420416363656CAA
:1004900065726174696F6E3A200053657474696E99
:1004A00067205072696E74696E6720416363656C82
:1004B00065726174696F6E3A2000486F74656E648E
:1004C000206F6666736574733A005A204F666673D0
:1004D0006574203A20007A5F6D61783A20007A5F77
:1004E0006D696E3A20005A204F6666736574005A33
:1004F000204F6666736574206F6B004368616E679A
:10050000652066696C616D656E7400256920686F91
:10051000757273202569206D696E7574657300446A
:100520006F6E65207072696E74696E672066696CA3
:10053000650053544F505045442E20005072696E50
:100540007465722073746F707065642064756520C3
:10055000746F206572726F72732E204669782074F2
:100560006865206572726F7220616E6420757365B4
:10057000204D39393920746F20726573746172743B
:100580002E202854656D70657261747572652069DE
:10059000732072657365742E20536574206974200E
:1005A00061667465722072657374617274696E67D6
:1005B00029004E6F204C696E65204E756D62657224
:1005C000207769746820636865636B73756D2C2090
:1005D0004C617374204C696E653A20004E6F204365
:1005E0006865636B73756D2077697468206C696EDC
:1005F00065206E756D6265722C204C617374204CA1
:10060000696E653A2000636865636B73756D206D74
:1006100069736D617463682C204C617374204C693C
:100620006E653A20004C696E65204E756D6265728C
:10063000206973206E6F74204C617374204C696E56
:1006400065204E756D6265722B312C204C61737480
:10065000204C696E653A20004D31313000446F6E98
:100660006520736176696E672066696C652E006F20
:100670006B004D3239002020506C616E6E65724205
:10068000756666657242797465733A200020467219
:100690006565204D656D6F72793A20004D6172205D
:1006A0003133203230313500436F6D70696C6564D1
:1006B0003A2000286E6F6E652C2064656661756C4B
:1006C0007420636F6E6669672900207C2041757411
:1006D000686F723A20004D61722031332032303120
:1006E000352031303A34333A303200204C61737463
:1006F00020557064617465643A2000302E312E30CC
:10070000004D61726C696E0020536F667477617280
:100710006520526573657400205761746368646F67
:1007200067205265736574002042726F776E206F88
:100730007574205265736574002045787465726E17
:10074000616C20526573657400506F7765725570E7
:10075000007374617274002200656E717565696E54
:1007600067202200205A005A2D50726F6265204F78
:10077000666673657420286D6D293A0046696C6160
:100780006D656E742073657474696E67733A204486
:10079000697361626C6564002020204D3230302026
:1007A00054312044002020204D3230302044004677
:1007B000696C616D656E742073657474696E6773BE
:1007C0003A002044002049002020204D33303120C1
:1007D00050005049442073657474696E67733A0021
:1007E000205A0020590020204D3230362058004831
:1007F0006F6D65206F666673657420286D6D293A8C
:1008000000204500205A00205800204200205400BB
:1008100020204D323035205300416476616E63658F
:1008200064207661726961626C65733A20533D4D54
:10083000696E20666565647261746520286D6D2F30
:1008400073292C20543D4D696E2074726176656C5D
:1008500020666565647261746520286D6D2F73294B
:100860002C20423D6D696E696D756D207365676DF5
:10087000656E742074696D6520286D73292C20586D
:100880003D6D6178696D756D205859206A65726B90
:1008900020286D6D2F73292C20205A3D6D617869B9
:1008A0006D756D205A206A65726B20286D6D2F73EF
:1008B000292C2020453D6D6178696D756D2045209E
:1008C0006A65726B20286D6D2F73290020540020FB
:1008D000520020204D323034205000416363656C5B
:1008E00065726174696F6E733A20503D7072696E03
:1008F00074696E672C20523D726574726163742056
:10090000616E6420543D74726176656C0020450010
:10091000205A0020590020204D3230312058004DFF
:100920006178696D756D20416363656C6572617492
:10093000696F6E20286D6D2F7332293A00204500B3
:10094000205A0020590020204D3230332058004DCD
:100950006178696D756D2066656564726174657333
:1009600020286D6D2F73293A00204500205A002061
:10097000590020204D39322058005374657073207F
:1009800070657220756E69743A0048617264636FB5
:100990006465642044656661756C74205365747485
:1009A000696E6773204C6F616465640020627974BE
:1009B000657329002073746F7265642073657474A5
:1009C000696E677320726574726965766564202844
:1009D00000206279746573290053657474696E67C9
:1009E000732053746F7265642028004572726F72B1
:1009F0002077726974696E6720746F204545505284
:100A00004F4D21004D383420582059205A204500A0
:100A100043616E6E6F7420656E74657220737562CB
:100A20006469723A20004D3234004D323320257310
:100A3000006175746F25692E67006572726F722090
:100A400077726974696E6720746F2066696C6500DF
:100A50004E6F74205344207072696E74696E670023
:100A60002F005344207072696E74696E672062793A
:100A7000746520002E0044656C6574696F6E206695
:100A800061696C65642C2046696C653A2000466992
:100A90006C652064656C657465643A002E006F7047
:100AA000656E206661696C65642C2046696C653AE8
:100AB000200057726974696E6720746F2066696CD4
:100AC000653A20002E006F70656E206661696C6566
:100AD000642C2046696C653A20002E006F70656EAC
:100AE000206661696C65642C2046696C653A20005B
:100AF00046696C652073656C65637465640020539A
:100B0000697A653A200046696C65206F70656E658C
:100B1000643A20002E006F70656E206661696C6516
:100B2000642C2046696C653A20004E6F772066720F
:100B30006573682066696C653A20004E6F772064A3
:100B40006F696E672066696C653A20002220706FBD
:100B500073002220706172656E743A220053554210
:100B6000524F5554494E452043414C4C20746172BC
:100B70006765743A2200747279696E6720746F2019
:100B800063616C6C207375622D67636F64652066AA
:100B9000696C6573207769746820746F6F206D616C
:100BA0006E79206C6576656C732E204D4158206CF3
:100BB0006576656C2069733A005344206361726402
:100BC000206F6B006F70656E526F6F742066616985
:100BD0006C656400766F6C756D652E696E69742046
:100BE0006661696C656400534420696E69742066AF
:100BF00061696C0045313A200045303A20005A3A8C
:100C00002000593A2000583A20004D53312C4D53C2
:100C1000322050696E730A0024F404D9201BC40CDE
:100C20005C0E9804C4095F0265077101F405F900C0
:100C3000FB04B30048048700C10369005803550052
:100C400003034500BE023A008402310053022A0029
:100C50002902250004022000E4011C00C80119003B
:100C6000AF011700980114008401130071011000F6
:100C70006101100051010E0043010D0036010B000F
:100C80002B010B0020010B00150109000C010900CC
:100C900003010800FB000800F3000800EB00070058
:100CA000E4000600DE000600D8000600D2000600C0
:100CB000CC000500C7000500C2000500BD0004000F
:100CC000B9000400B5000400B1000400AD00040048
:100CD000A9000400A5000300A20003009F00040077
:100CE0009B0003009800030095000200930003009E
:100CF000900003008D0002008B00030088000200BA
:100D00008600020084000300810002007F000200D0
:100D10007D0002007B0002007900020077000100E4
:100D200076000200740002007200010071000200EF
:100D30006F0002006D0001006C0002006A000100FB
:100D40006900020067000100660001006500010003
:100D50006400020062000100610001006000010007
:100D60005F0002005D0001005C0001005B0001000B
:100D70005A0001005900010058000100570001000D
:100D8000560001005500010054000100530000000E
:100D90005300010052000100510001005000010009
:100DA0004F0001004E0000004E0001004D00010008
:100DB0004C0001004B0000004B0001004A00010004
:100DC0004900010048000000480001004700010000
:100DD00046000000460001004500000045000100FB
:100DE00044000100430000004300010042000000F5
:100DF00042000100410000004100010040000100EC
:100E00003F0000003F0001003E0000003E000100E6
:100E10003D0000003D0001003C0000003C000000DF
:100E20003C0001003B0000003B0001003A000000D4
:100E30003A000100390000003900010038000000CC
:100E400038000000380001003700000037000100C2
:100E500036000000360000003600010035000000BA
:100E600035000000350001003400000034000000AF
:100E700034000100330000003300000033000100A3
:100E8000320000003200000032000100310000009A
:100E9000310000003100010030000000300000008F
:100EA000300001002F0000002F0000002F00000084
:100EB0002F0001002E0000002E0000002E00010077
:100EC0002D0000002D0000002D0000002D0001006D
:100ED0002C0000002C0000002C0000002C00010061
:100EE0002B0000002B0000002B0000002B00010055
:100EF0002A0000002A0000002A0000002A00010049
:100F0000290000002900000029000000290000003D
:100F1000290001002800000028000000280000002F
:100F20002800000028000100270000002700000022
:100F30002700000027000000270001002600000015
:100F40002600000026000000260000002600010008
:100F500025000000250000002500000025000000FD
:100F600025000000250001002400000024000000EE
:100F700024000000240000002400010023000000E1
:100F800023000000230000002300000023000000D5
:100F900023000000230001002200000022000000C6
:100FA00022000000220000002200000022000100B8
:100FB00021000000210000002100000021000000AD
:100FC000210000002100000021000100200000009D
:100FD0002000000020000000200000002000000091
:100FE0002000000020000000200001001F00000081
:100FF0001F0000001F0000001F0000001F00000075
:101000001F0000001F0001001E0000001E00000065
:101010001E0000001E00000024F4D43050C38E20B7
:10102000C2A24017828B7011127A910D816CD90A7D
:10103000A861E108C7586607615143061E4B5D056C
:10104000C145A7041A411104093D980371393103C0
:101050004036DB0265339102D4305402802E1D02EB
:10106000632CEE01752AC501B028A001102781016B
:101070008F2564012B244B01E0223401AC211F0198
:101080008D200D01801FFC00841EED00971DDF00E8
:10109000B81CD200E61BC600201BBC00641AB200BC
:1010A000B219A8000A19A0006A189900D117910076
:1010B00040178B00B516840031167E00B3157900F9
:1010C0003A157300C7146F0058146A00EE136600D7
:1010D0008813630025135E00C7125B006C12570073
:1010E00015125400C111510070114F0021114B0015
:1010F000D61049008D1047004610440002104200EF
:10110000C00F4000800F3E00420F3C00060F3B0026
:10111000CB0E3800930E37005C0E3500270E3400DE
:10112000F30D3200C10D3100900D3000600D2E0026
:10113000320D2D00050D2C00D90C2B00AE0C290012
:10114000850C29005C0C2700350C27000E0C2600AE
:10115000E80B2400C40B2400A00B23007D0B23000C
:101160005A0B2100390B2100180B2000F80A1F0030
:10117000D90A1E00BB0A1E009D0A1D00800A1D0020
:10118000630A1C00470A1B002C0A1B00110A1A00E4
:10119000F7091A00DD091900C4091900AB09190083
:1011A000920917007B091800630917004C09160003
:1011B00036091600200916000A091500F508150061
:1011C000E0081400CC081400B8081400A4081400A7
:1011D000900813007D0812006B08130058081200D5
:1011E00046081200340811002308110012081100EB
:1011F00001081100F0071000E0071000D0071000F0
:10120000C0071000B0070F00A107100091070E00E3
:1012100083070F0074070F0065070E0057070E00C5
:1012200049070E003B070D002E070E0020070D009A
:1012300013070D0006070D00F9060C00ED060D0062
:10124000E0060C00D4060C00C8060C00BC060C001E
:10125000B0060C00A4060B0099060C008D060B00CE
:1012600082060B0077060B006C060B0061060A0075
:1012700057060B004C060A0042060A0038060A0010
:101280002E060A0024060A001A060A0010060900A3
:1012900007060A00FD050900F4050900EB05090031
:1012A000E2050900D9050900D0050900C7050900B4
:1012B000BE050900B5050800AD050800A505090033
:1012C0009C050800940508008C05080084050800AA
:1012D0007C050800740508006C050700650508001A
:1012E0005D050700560508004E0507004705070085
:1012F0004005080038050700310507002A050700EA
:10130000230507001C050600160507000F0507004A
:101310000805060002050700FB040600F5040700A7
:10132000EE040600E8040600E2040700DB04060001
:10133000D5040600CF040600C9040600C304060055
:10134000BD040600B7040600B1040500AC040600A5
:10135000A6040600A00405009B04060095040500F1
:10136000900406008A040500850405008004060038
:101370007A04050075040500700405006B0405007F
:1013800066040500610405005C04050057040500BF
:10139000520405004D0405004804050043040500FF
:1013A0003E0404003A04050035040500300404003E
:1013B0002C04050027040400230405001E04040077
:1013C0001A04040016040500110404000D040400AE
:1013D000090405000404040000040400FC030400E4
:1013E000F8030400F4030400F0030400EC03040019
:1013F000E8030400E4030400E0030400DC03040049
:10140000D8030400D4030400D0030400CC03040078
:10141000C8030300C5030300656E6473746F7073C3
:10142000206869743A205A00205A3A00656E647345
:10143000746F7073206869743A20590020593A001B
:10144000656E6473746F7073206869743A20580015
:1014500020583A00656E6473746F70732068697405
:101460003A20007C3C3E5E2B3D3F2F5B5D3B2C2AAF
:10147000225C0020746F6F206C6F6E67206578743B
:10148000727573696F6E2070726576656E746564CF
:101490000020636F6C6420657874727573696F6E79
:1014A0002070726576656E74656400202D20496E2B
:1014B00076616C6964206578747275646572206EFB
:1014C000756D62657220210070012C019001270169
:1014D000B0012201C0011D01F00118011002130129
:1014E00030020E016002090190020401C002FF00F7
:1014F0000003FA004003F5008003F000D003EB0086
:101500002004E6007004E100E004DC004005D700A0
:10151000C005D2004006CD00D006C8008007C30039
:101520003008BE00F008B900C009B400B00AAF002E
:10153000B00BAA00D00CA500000EA000500F9B001D
:10154000C01096005012910000148C00C015870046
:10155000B0178200B0197D00D01B7800001E730008
:1015600040206E0090226900F024640040275F0054
:1015700090295A00E02B5500102E500020304B00CF
:1015800010324600E033410090353C001037370000
:1015900070383200A0392D00B03A2800A03B23005B
:1015A000603C1E00103D1900903D1400103E0F00DD
:1015B000703E0A00C03E0500003F00005049442034
:1015C0004175746F74756E652066696E69736865C0
:1015D00064212050757420746865206C61737420D8
:1015E0004B702C204B6920616E64204B6420636F2C
:1015F0006E7374616E74732066726F6D2061626FBA
:10160000766520696E746F20436F6E6669677572C8
:101610006174696F6E2E6800504944204175746F83
:1016200074756E65206661696C6564212074696DEE
:10163000656F75740020403A006F6B20543A006F5C
:101640006B20423A00504944204175746F74756EA6
:1016500065206661696C6564212054656D706572F2
:10166000617475726520746F6F2068696768002007
:101670004B643A2000204B693A2000204B703A20FE
:101680000020436C6173736963205049442000203B
:1016900054753A2000204B753A2000206D61783A4D
:1016A0002000206D696E3A200020643A20002062FC
:1016B0006961733A20002D2D3A2D2D002D2D2D001E
:1016C0005344000120000120000120004E6F2053F0
:1016D000442063617264005072696E742066726F98
:1016E0006D2053440053746F70207072696E7400E3
:1016F000526573756D65207072696E740050617506
:101700007365207072696E7400436F6E74726F6CD3
:1017100000507265706172650054756E6500496EA7
:10172000666F2073637265656E00052E2E004D6135
:10173000696E004D3234004D3233202573004D3830
:101740003420582059205A204500526573746F7216
:1017500065206661696C73616665004C6F61642029
:101760006D656D6F72790053746F7265206D656D74
:101770006F72790046696C616D656E74004D6F74AF
:10178000696F6E0054656D70657261747572650085
:101790004D61696E0046696C2E204469612E2032CD
:1017A0000046696C2E204469612E20320046696C27
:1017B0002E204469612E20310046696C2E20446938
:1017C000612E2031004F6666004F6E20004F666626
:1017D000004F6E20004520696E206D6D3300436F11
:1017E0006E74726F6C004573746570732F6D6D004D
:1017F0004573746570732F6D6D005A7374657073E3
:101800002F6D6D005A73746570732F6D6D00597371
:10181000746570732F6D6D005973746570732F6DDF
:101820006D005873746570732F6D6D005873746517
:1018300070732F6D6D00412D74726176656C00417F
:101840002D74726176656C00412D726574726163EE
:101850007400412D7265747261637400416D61782A
:10186000206500416D6178206500416D6178207AC6
:1018700000416D6178207A00416D617820790041E6
:101880006D6178207900416D6178207800416D614B
:10189000782078005654726176206D696E00565437
:1018A000726176206D696E00566D696E00566D69C5
:1018B0006E00566D6178206500566D617820650078
:1018C000566D6178207A00566D6178207A00566DE9
:1018D0006178207900566D6178207900566D6178C5
:1018E000207800566D617820780056652D6A657203
:1018F0006B0056652D6A65726B00567A2D6A6572AB
:101900006B00567A2D6A65726B005678792D6A6580
:10191000726B005678792D6A65726B00416363655E
:101920006C00416363656C00436F6E74726F6C0092
:10193000507265686561742041425320636F6E6622
:10194000005072656865617420504C4120636F6E71
:1019500066005049442D43005049442D43005049EE
:10196000442D44005049442D44005049442D490021
:101970005049442D49005049442D50005049442DB0
:1019800050002002204661637400200220466163FB
:1019900074002002204D6178002002204D61780003
:1019A0002002204D696E002002204D696E004F66B6
:1019B00066004F6E20004F6666004F6E2000417536
:1019C000746F74656D700046616E20737065656438
:1019D0000046616E20737065656400426564004274
:1019E0006564004E6F7A7A6C652032004E6F7A7AA9
:1019F0006C652032004E6F7A7A6C65004E6F7A7A91
:101A00006C6500436F6E74726F6C0053746F726517
:101A1000206D656D6F7279004265640042656400F7
:101A20004E6F7A7A6C65004E6F7A7A6C650046610B
:101A30006E2073706565640046616E207370656525
:101A4000640054656D7065726174757265005374DD
:101A50006F7265206D656D6F72790042656400423A
:101A60006564004E6F7A7A6C65004E6F7A7A6C65A9
:101A70000046616E2073706565640046616E207378
:101A8000706565640054656D70657261747572652A
:101A9000004D6F7665206178697300436F6F6C64E9
:101AA0006F776E0050726568656174204142530023
:101AB0005072656865617420504C41005365742014
:101AC000686F6D65206F66667365747300473238A2
:101AD000004175746F20686F6D65004D38340044A7
:101AE000697361626C6520737465707065727300F0
:101AF0004D61696E004D6F766520302E316D6D0041
:101B00004D6F766520316D6D004D6F7665203130FB
:101B10006D6D005072657061726500457874727504
:101B2000646572004D6F7665205A004D6F766520B2
:101B300059004D6F76652058004D6F7665206178AD
:101B40006973004578747275646572005A005900B3
:101B500058005072656865617420414253204265A7
:101B60006400507265686561742041425320416C85
:101B70006C005072656865617420414253203200E8
:101B80005072656865617420414253203100507283
:101B90006570617265005072656865617420504CB3
:101BA0004120426564005072656865617420504C44
:101BB0004120416C6C005072656865617420504C26
:101BC000412032005072656865617420504C41209C
:101BD000310050726570617265004D3630300043DF
:101BE00068616E67652066696C616D656E7400463C
:101BF0006C6F77203100466C6F77203100466C6F38
:101C000077203000466C6F77203000466C6F77008D
:101C1000466C6F770046616E2073706565640046A0
:101C2000616E20737065656400426564004265649E
:101C3000004E6F7A7A6C652032004E6F7A7A6C654E
:101C40002032004E6F7A7A6C65004E6F7A7A6C653E
:101C5000005370656564005370656564004D61698B
:101C60006E00436172642072656D6F766564004337
:101C700061726420696E736572746564004D3330FF
:101C800030205336353920503230300A4D33303021
:101C900020533639382050323030000000210024E3
:101CA0000027002A002D003000330001010000044D
:101CB0000107010A0100002200250028002B002E48
:101CC000003100340002010000050108010B010091
:101CD0000020002300260029002C002F00320000E5
:101CE00001000003010601090105050505070508B6
:101CF000080808020202020A0A080804040404018F
:101D000001010101010101030303030303030304B0
:101D10000707070C0C0C0C0C0C0C0C020202020640
:101D2000060606060606060B0B0B0B0B0B0B0B0130
:101D300002102020080810204010204080020102DC
:101D400001080402010102040810204080804020A4
:101D500010080402018004020180402010080402DF
:101D6000010804020101020408102040800102045D
:101D700008102040800000090A02080B0C0D07061D
:101D8000030401000000000000000000000000004B
:101D90000000000000000000000000000000000043
:101DA0000011100F00000000000000000000000003
:101DB000000000000000000000000002494E4649FB
:101DC0004E4954594E414ECDCCCC3D0AD7233C17F9
:101DD000B7D13877CC2B329595E6241FB14F0A0046
:101DE0000020410000C84200401C4620BCBE4CCA36
:101DF0001B0E5AAEC59D74009015EE2097D115DFCD
:101E0000E92011241FBECFEFD1E2DEBFCDBF00E03D
:101E10000CBF16E0A0E0B2E0E8E1FFED01E00BBF8F
:101E200002C007900D92A430B107D9F71BBE14E190
:101E3000A4E0B6E001C01D92A43CB107E1F71DE1AA
:101E4000C0E0DEE104C02297FE010E9432EFC83FED
:101E5000D107C9F70E942DE60C9480EF0C94000086
:101E6000A0E0B0E0E6E3FFE00C944FEFEC015B0193
:101E70006115710519F0FB0191838083F9908F2D15
:101E800090E00E9436EF892BC9F7FDE2FF1621F49E
:101E9000F990EE24E39405C02BE2F21609F4F990D0
:101EA000EE248E0101501040C8016CEB7DE143E04F
:101EB00050E062D2892BF9F48E010E5F1F4FC801EA
:101EC0006FEB7DE145E050E057D2892B19F48E018C
:101ED000095F1F4FA114B10419F0F50111830083AC
:101EE000E0FC04C070E090E080E813C070E090E097
:101EF00080E86FEF07C1C80164EC7DE143E050E08A
:101F00003BD2892B69F4A114B10429F470E090E06C
:101F100080EC6FE7F7C02296F501D183C083F6CF3E
:101F20008824992440E050E060E070E0EF2DE05319
:101F3000EA30A0F5F2E0EF2A8E2D90E09C012870A7
:101F40003070E2FE06C0232B79F50894811C911CA9
:101F50002BC0232B19F0089481089108DB01CA01DA
:101F600012E0880F991FAA1FBB1F1A95D1F7480FBF
:101F7000591F6A1F7B1F440F551F661F771F4E0F87
:101F8000511D611D711D483929E9520729E9620770
:101F900029E1720748F084E0E82A06C0EE3F31F4F8
:101FA000E3FC39C098E0E92AF990C0CFE53311F09D
:101FB000E53189F529912D3219F4E0E1EE2A05C0C9
:101FC0002B3219F081E090E003C0299182E090E08B
:101FD000E22FE053EA3018F0C81BD90B1CC020E0F8
:101FE00030E0FCE020383F075CF4C901880F991FFE
:101FF000880F991F280F391F220F331F2E0F311DF5
:10200000E991E053EA3068F3E4FE03C0309521958E
:102010003F4F820E931ECE2CDD24E1FE07C0A1149B
:10202000B10421F02197F501D183C083CB01BA011E
:102030000E949BEB7B018C01F3E0CF22DD2423E0A7
:10204000C216D10421F417FB109517F9109557010A
:102050006801C801B70120E030E040E050E00E9494
:10206000FBEA882309F44AC097FE0DC02BEDE22E4F
:102070002DE1F22E9094819491089394C0E2D0E0E7
:1020800000E010E012C093EFE92E9DE1F92EF6CFAB
:10209000F7012591359145915491C601B5010E94F2
:1020A000DBED5B016C018C1A9D0A8C169D0684F792
:1020B000D595C7950F5F1F4F0630110529F08CEF9E
:1020C0009FEFE80EF91EF1CFC501D6017C018D010D
:1020D0008C2D880F8D2D881F8F3F51F0C601B501C3
:1020E00020E030E040E050E00E94FBEA882331F439
:1020F00082E290E09093C3148093C2147E2D9F2DB2
:10210000802F612F272F392F482F562FB901CA0151
:10211000CDB7DEB7ECE00C946BEF2F923F925F925D
:102120006F927F928F929F92AF92BF92CF92DF92E7
:10213000EF92FF920F931F93CF93DF938C011B01BC
:10214000EA016115710519F0FB01918380832097E5
:1021500049F0CE010297839728F020E030E040E07C
:1021600050E0F6C0F801A1908F018A2D90E00E9406
:1021700036EF892BB9F7FDE2AF1631F4F801A190E3
:102180008F015524539407C0FBE2AF1619F4F801F0
:10219000A1908F015524209719F0C031D105C1F4C9
:1021A000F0E3AF1679F4F8018081883711F08835B3
:1021B00049F4F801A1800E5F1F4FF2E05F2AC0E1F1
:1021C000D0E006C0209721F480E3A816E9F427C0E8
:1021D000C830D10531F1C930D10524F4C230D10560
:1021E00031F50CC0CA30D10589F0C031D105F9F400
:1021F000C12CD12CE12CB8E0FB2E28C0C12CD12C55
:10220000E12CA0E4FA2E22C0CAE0D0E0FCECCF2EF4
:10221000FCECDF2EFCECEF2EFCE0FF2E17C0C8E03C
:10222000D0E0C12CD12CE12CE0E1FE2E0FC09E01AC
:10223000442737FD4095542F60E070E080E090E83F
:102240000E94F3EEC901DA016C017D0120E030E06B
:1022500040E050E060E03E01882477FC8094982CB8
:1022600070EDB72EBA0CE9E0EB1570F48A2D8154AD
:102270008A3118F499ECB92E06C08A2D81568A311C
:1022800050F589EAB82EBA0C8B2D90E08C179D077B
:1022900014F56F3FE1F0C216D306E406F506B0F080
:1022A000CA01B901A40193010E94ADEE9B01AC01EA
:1022B0002B0D311D411D511D2130F0E03F07F0E095
:1022C0004F07F0E85F0710F461E001C06FEFF8011D
:1022D000A1908F01C5CF2114310481F0662331F024
:1022E00001501040F1011183008308C051FE1AC053
:1022F00002501040F1011183008314C067FF12C027
:1023000050FC05C02FEF3FEF4FEF5FE704C020E028
:1023100030E040E050E882E290E09093C314809374
:10232000C21416C050FE08C05095409530952195B6
:102330003F4F4F4F5F4F0CC057FF0AC082E290E003
:102340009093C3148093C2142FEF3FEF4FEF5FE7DA
:10235000B901CA01DF91CF911F910F91FF90EF90CA
:10236000DF90CF90BF90AF909F908F907F906F90B5
:102370005F903F902F900895FB01DC014150504049
:1023800088F08D9181341CF08B350CF4805E659162
:1023900061341CF06B350CF4605E861B611171F3C7
:1023A000990B0895881BFCCFFB01DC014150504084
:1023B00048F005900D920020C9F701C01D924150D0
:1023C0005040E0F70895FB0155915523A9F0BF0156
:1023D000DC014D9145174111E1F759F4CD0105900C
:1023E000002049F04D9140154111C9F3FB01411105
:1023F000EFCF81E090E001970895FB01DC0104C07C
:102400008D910190801921F441505040C8F7881BEC
:10241000990B0895FB01DC0102C001900D9241501F
:102420005040D8F70895FB01DC018D9181341CF0F8
:102430008B350CF4805E619161341CF06B350CF4CB
:10244000605E861B611189F3990B0895FB01DC0125
:102450000D900020E9F7119701900D920020E1F70F
:102460000895FC018191861721F08823D9F79927D7
:1024700008953197CF010895FB01DC018D91019002
:1024800080190110D9F3990B0895FB01DC0101902B
:102490000D920020E1F70895FB01DC01415050400E
:1024A00030F08D910190801919F40020B9F7881B44
:1024B000990B0895FB01DC014150504048F0019018
:1024C0000D920020C9F701C01D9241505040E0F725
:1024D0000895AEE0B0E0EFE6F2E10C9457EF0E891C
:1024E0001F898EE08C831A8309838FEF9FE79E8379
:1024F0008D839E01265E3F4FCE010196688D798DBA
:10250000A9010AD02F813885020F131FF80110820C
:102510002E96E4E00C9473EFABE0B0E0E2E9F2E178
:102520000C9449EF3C012B015A01FC0117821682E1
:10253000838181FD03C06FEF7FEFB9C19AE0892EDF
:102540001E010894211C311CF3012381F20123FD9B
:10255000859123FF81912F01882309F4A5C185323C
:1025600039F423FD859123FF81912F01853221F4D8
:1025700090E0B301B7D1E8CF982FFF24EE2499243F
:10258000FFE1FF15D0F09B3269F09C3228F49032C5
:1025900059F0933291F40EC09D3249F0903369F4B2
:1025A00041E024C052E0F52A84E0F82A28C098E0EF
:1025B000F92A25C0E0E1FE2A22C0F7FC29C0892FB4
:1025C00080538A3070F4F6FE05C0989C902C11243C
:1025D000980E15C0E89CE02C1124E80EF0E2FF2ACA
:1025E0000EC09E3229F4F6FC5FC140E4F42A07C015
:1025F0009C3619F450E8F52A02C0983649F4F201E5
:1026000023FD959123FF91912F01992309F0B8CFD4
:10261000892F8554833018F08052833038F444E099
:1026200050E0A40EB51E5FE359830FC0933631F01E
:10263000933779F0933509F052C01FC0F5018081BE
:10264000898342E050E0A40EB51E610101E010E074
:1026500011C0F501C080D180F6FC03C06FEF7FEFA1
:1026600002C0692D70E042E050E0A40EB51EC60124
:102670002ED18C015FE7F52213C0F501C080D18017
:10268000F6FC03C06FEF7FEF02C0692D70E042E0FF
:1026900050E0A40EB51EC6010FD18C0150E8F52AFA
:1026A000F3FE06C018C080E290E0B3011BD1EA94AB
:1026B0008E2D90E008171907B0F30DC0F601F7FC56
:1026C0008591F7FE81916F0190E0B3010BD1E1108C
:1026D000EA94015010400115110581F7E2C09436CB
:1026E00011F0993661F5F7FE08C0F50120813181BE
:1026F0004281538184E090E00AC0F501808191819C
:102700009C01442737FD4095542F82E090E0A80EAD
:10271000B91E9FE6F92257FF09C0509540953095A4
:1027200021953F4F4F4F5F4FE0E8FE2ACA01B901A4
:10273000A1012AE030E002D1D82ED2183FC095374F
:1027400029F41F2D1F7E2AE030E01DC01F2D197FA8
:102750009F3661F0903720F4983509F0A5C00FC07E
:10276000903739F0983709F09FC004C028E030E076
:102770000AC0106114FD146020E130E004C014FDB3
:10278000166020E132E017FF08C0F5016081718119
:102790008281938144E050E008C0F50180819181FD
:1027A000BC0180E090E042E050E0A40EB51EA10123
:1027B000C5D0D82ED2188FE7F82EF122F6FE0BC026
:1027C0005EEFF522D91438F4F4FE07C0F2FC05C020
:1027D0008FEEF82202C01D2D01C0192DF4FE0DC090
:1027E000FE01ED0DF11D8081803319F499EEF9227F
:1027F00008C01F5FF2FE05C003C08F2D867809F068
:102800001F5F0F2DF3FC13C0F0FE0EC01E1510F05D
:102810009D2C0AC09D2C9E0C911A1E2D05C080E295
:1028200090E0B3015FD01F5F1E15C8F304C01E15F2
:1028300010F4E11A01C0EE2404FF0EC080E390E022
:10284000B30150D002FF1BC001FD03C088E790E038
:102850000EC088E590E00BC0802F867881F001FFE4
:1028600002C08BE201C080E2F7FC8DE290E0B30190
:1028700039D005C080E390E0B30134D09A94D914E4
:10288000C8F3DA94F101ED0DF11D808190E0B30100
:1028900029D0DD20B1F705C080E290E0B30122D05D
:1028A000EA94EE20C9F750CEF30166817781CB011F
:1028B0002B96E2E10C9465EFFC01059061507040AD
:1028C0000110D8F7809590958E0F9F1F0895FC01F9
:1028D0006150704001900110D8F7809590958E0F4F
:1028E0009F1F08950F931F93CF93DF938C01EB01EC
:1028F0008B8181FF1BC082FF0DC02E813F818C81A7
:102900009D812817390764F4E881F9810193F983DF
:10291000E88306C0E885F985802F1995892B31F465
:102920008E819F8101969F838E8302C00FEF1FEFE0
:10293000C801DF91CF911F910F910895FA01AA2745
:10294000283051F1203181F1E8946F936E7F6E5FF2
:102950007F4F8F4F9F4FAF4FB1E03ED0B4E03CD0A0
:10296000670F781F891F9A1FA11D680F791F8A1F83
:10297000911DA11D6A0F711D811D911DA11D20D0EA
:1029800009F468943F912AE0269F11243019305DA4
:102990003193DEF6CF010895462F4770405D419395
:1029A000B3E00FD0C9F7F6CF462F4F70405D4A33E2
:1029B00018F0495D31FD4052419302D0A9F7EACFAA
:1029C000B4E0A6959795879577956795BA95C9F7D9
:1029D00000976105710508959B01AC010A2E0694CC
:1029E0005795479537952795BA95C9F7620F731F85
:1029F000841F951FA01D08951F920F920FB60F926E
:102A00000BB60F9211242F933F934F938F939F9365
:102A1000EF93FF934091C600E0918406F091850604
:102A200031969F012F773070319780918606909173
:102A300087062817390739F0EC5FF94F4083309348
:102A4000850620938406FF91EF919F918F914F917E
:102A50003F912F910F900BBE0F900FBE0F901F90C4
:102A600018959A01AB01203081EE380780E04807C5
:102A700080E0580749F182E08093C00060E079E08F
:102A80008DE390E00E9415EF2150304040405040CF
:102A9000CA01B90122E030E040E050E00E9415EFA9
:102AA0003093C5002093C4008091C1008061809361
:102AB000C1008091C10088608093C1008091C100F5
:102AC00080688093C10008951092C00020E130E03A
:102AD000E7CF2091860630918706809184069091F9
:102AE00085068217930719F42FEF3FEF0EC0F90107
:102AF000EC5FF94F80812F5F3F4F2F77307030931D
:102B0000870620938606282F30E0C901089580911A
:102B10008606909187069093850680938406089593
:102B200008952F923F924F925F926F927F928F9271
:102B30009F92AF92BF92CF92DF92EF92FF920F934C
:102B40001F93DF93CF93CDB7DEB7A0970FB6F8945E
:102B5000DEBF0FBECDBF1C016A017B0141155105CF
:102B60006105710541F440E350E060E070E020E071
:102B700030E08BD055C0882499245401422E55242E
:102B80006624772401E010E00C0F1D1F080D191DAD
:102B9000C701B601A30192010E94F3EEF801608320
:102BA0000894811C911CA11CB11CC701B601A30192
:102BB00092010E94F3EEC901DA016C017D01C1149A
:102BC000D104E104F104F1F681E0E82EF12CEC0EE1
:102BD000FD1EE80CF91C3E010894611C711CD50116
:102BE000C4010197A109B1096C01C818D90815C021
:102BF000F601EE0DFF1D40814A3010F4405D01C02A
:102C0000495C552747FD5095652F752FC10120E080
:102C100030E03BD00894E108F1086E147F0441F7DE
:102C2000A0960FB6F894DEBF0FBECDBFCF91DF9157
:102C30001F910F91FF90EF90DF90CF90BF90AF90DA
:102C40009F908F907F906F905F904F903F902F90CC
:102C500008952115310539F48091C00085FFFCCF1E
:102C60004093C60008955DCFEF92FF920F931F939C
:102C70009A01E62EFF2400E010E0B801A701E9DF89
:102C80001F910F91FF90EF900895EF92FF920F9395
:102C90001F93CF93DF93EC017A018B01211531054E
:102CA00039F48091C00085FFFCCFE092C60019C0C6
:102CB0002A303105A9F477FF0FC04DE250E060E003
:102CC00070E020E030E0E1DF10950095F094E094B2
:102CD000E11CF11C011D111DCE01B801A7012AE064
:102CE00020DFDF91CF911F910F91FF90EF9008951A
:102CF000EF92FF920F931F937B019A010027F7FC3D
:102D00000095102FB801A701C0DF1F910F91FF9010
:102D1000EF9008950F931F938C014DE050E060E019
:102D200070E020E030E0B1DFC8014AE050E060E050
:102D300070E020E030E0A9DF1F910F910895CF925D
:102D4000DF92EF92FF920F931F938C019A016B0118
:102D5000EE24FF24B701A6017CDFC801DBDF1F9151
:102D60000F91FF90EF90DF90CF9008959F92AF92D8
:102D7000BF92CF92DF92EF92FF920F931F93CF9368
:102D8000DF93EC017A018B01922ECB01BA0120E096
:102D900030E040E050E00E94FBEA882364F4CE017A
:102DA0004DE250E060E070E020E030E06EDF17FBC5
:102DB000109517F9109520E030E040E05FE3AA2479
:102DC0000BC0CA01B90120E030E040E251E40E94AA
:102DD00002EB9B01AC01A394A91498F3C801B701BD
:102DE0000E9422EA7B018C010E946FEB5B016C0167
:102DF0000E949BEB9B01AC01C801B7010E9421EA34
:102E00007B018C01CE01B601A5012AE030E021DF73
:102E1000992099F1E0E0F2E007C08091C00085FFC1
:102E2000FCCF31969093C60090819923B1F725C0CD
:102E3000C801B70120E030E040E251E40E94DBED40
:102E40007B018C010E946AEB5B016C01CC24B7FC16
:102E5000C094DC2CCE01B601A5012AE030E015DFDC
:102E6000C601B5010E949DEB9B01AC01C801B701F1
:102E70000E9421EA7B018C019A949920C9F6DF9186
:102E8000CF911F910F91FF90EF90DF90CF90BF9067
:102E9000AF909F9008956ACF089580918F088823FE
:102EA00089F14091890650918A0660918B06709154
:102EB0008C0680918D0890918E082DE836E07FD5A4
:102EC000882311F1409190085091910860919208E7
:102ED00070919308411551056105710589F0809144
:102EE0008D0890918E082DE836E069D5882361F031
:102EF00010929008109291081092920810929308E4
:102F000010928F0881E0089580E00895DF92EF929B
:102F1000FF920F931F937B018C01D42E8091890621
:102F200090918A06A0918B06B0918C068E159F0514
:102F3000A007B107B1F0B1DF8823D9F080918D08E7
:102F400090918E08B801A7012DE836E0EBD58823D3
:102F500081F0E0928906F0928A0600938B06109326
:102F60008C06DD2011F481E005C081E080938F089C
:102F700001C080E01F910F91FF90EF90DF900895C6
:102F80008F929F92AF92BF92CF92DF92EF92FF9279
:102F90000F931F93CF93DF936C01142F70938E08C0
:102FA00060938D08FC01178A82E090E0A0E0B0E019
:102FB00080839183A283B38310928F08109290082C
:102FC0001092910810929208109293088FEF9FEF41
:102FD000AFEFBFEF8093890690938A06A0938B068C
:102FE000B0938C06442321F48824992454013FC0D3
:102FF000453008F01CC160E070E080E090E040E007
:1030000085DF882309F413C1C12FD0E02197FE0189
:1030100074E0EE0FFF1F7A95E1F7E357F94FE254A2
:10302000FE4F8081EE5BF14090E08F779070892BAE
:1030300009F0FDC0E653FE4F80819181A281B381EA
:1030400084369105A105B10508F4F1C064E0CC0F08
:10305000DD1F6A95E1F7CD5AD74F88809980AA8005
:10306000BB8081149104A104B10409F4E0C0C5013E
:10307000B40140E04BDF882309F4D9C08091980661
:10308000909199068050924009F0D1C020919D0600
:10309000222309F4CCC080919B0690919C06892B39
:1030A00009F4C5C080919A06882309F4C0C0F601CE
:1030B000228B80919A068483158661E070E007C0B8
:1030C0004F5FF60145874150483008F0B0C0F60127
:1030D0004585848190E09B01042E02C0220F331F9E
:1030E0000A94E2F78217930759F72091A3063091CB
:1030F000A4062115310519F040E050E008C02091E8
:10310000B1063091B2064091B3065091B406F60173
:103110002583368347835087E0909B06F0909C067A
:1031200000E010E0E80CF91C0A1D1B1DE38AF48A7C
:10313000058B168B80919E0690919F06918F808FB4
:1031400060919D0670E080E090E00E94ADEE6E0D13
:103150007F1D801F911FF601628F738F848F958F63
:1031600020919E0630919F0655E0220F331F5A95FD
:10317000E1F721503E4F232F3327269540E050E0C2
:10318000260F371F481F591F26873787408B518BC3
:103190008091A0069091A106009719F0A0E0B0E000
:1031A00008C08091AD069091AE06A091AF06B09197
:1031B000B00685017401E21AF30A040B150BA8018D
:1031C0009701280F391F4A1F5B1FF601058404C0B1
:1031D00056954795379527950A94D2F721873287D8
:1031E00043875487253FFFE03F07F0E04F07F0E0BB
:1031F0005F0720F48CE0F601878B19C0255F3F4FF5
:103200004040504018F480E1F6010EC08091B906AC
:103210009091BA06A091BB06B091BC06F601828FD0
:10322000938FA48FB58F80E2878B81E001C080E00F
:10323000DF91CF911F910F91FF90EF90DF90CF9092
:10324000BF90AF909F908F9008956F927F928F92D2
:103250009F92AF92BF92CF92DF92EF92FF920F9325
:103260001F93CF93DF93EC015A016B0138014901A1
:10327000423051056105710508F45DC089859A8564
:10328000AB85BC850196A11DB11D84179507A607C6
:10329000B70708F450C08F89803129F4E52EF62E47
:1032A000072F11270CC0803209F045C07A018B012D
:1032B00087E016950795F794E7948A95D1F78B895F
:1032C0009C89AD89BE89E80EF91E0A1F1B1FC80123
:1032D000B70141E01BDE882371F18F89803149F409
:1032E000F501F070EE0FFF1FE357F94F7182608216
:1032F0000DC0F501EF77F070EE0FFF1FEE0FFF1F0F
:10330000E357F94F60827182828293828A89823088
:1033100080F08D819E81AF81B885E80EF91E0A1F6D
:103320001B1FE0929008F09291080093920810936E
:10333000930881E001C080E0DF91CF911F910F9150
:10334000FF90EF90DF90CF90BF90AF909F908F90C5
:103350007F906F900895CF92DF92EF92FF920F933C
:103360001F93CF93DF93EC017A018B01690189856B
:103370009A85AB85BC850196A11DB11D8417950763
:10338000A607B70708F452C08F89803129F4552762
:10339000412F302F2F2D0CC0803209F047C09A01E9
:1033A000AB0167E056954795379527956A95D1F714
:1033B0008B899C89AD89BE89280F391F4A1F5B1FE5
:1033C0008091890690918A06A0918B06B0918C0617
:1033D000281739074A075B0731F0CA01B90140E0F5
:1033E00095DD882319F18F89803159F4F701F07048
:1033F000EE0FFF1FE357F94F80819181A0E0B0E00D
:103400000EC0F701EF77F070EE0FFF1FEE0FFF1FFA
:10341000E357F94F80819181A281B381BF70F6019A
:1034200080839183A283B38381E001C080E0DF9138
:10343000CF911F910F91FF90EF90DF90CF90089563
:10344000AF92BF92CF92DF92EF92FF920F931F93B2
:10345000DF93CF9300D00F92CDB7DEB76C017A0126
:103460008B0182E090E0A0E0B0E0F60180839183E0
:10347000A283B3835E010894A11CB11CC601B801EC
:10348000A701950168DF882339F1C601B801A701BA
:1034900000E010E020E030E0D8DE8823E9F0E980A9
:1034A000FA800B811C81F6018789803151F4F8EF95
:1034B000EF16FFEFFF06F0E00F07F0E01F07F0F256
:1034C00009C088EFE8168FEFF8068FEF08078FE046
:1034D0001807A0F281E001C080E00F900F900F90DC
:1034E0000F90CF91DF911F910F91FF90EF90DF90A0
:1034F000CF90BF90AF9008954F925F926F927F925E
:103500008F929F92AF92BF92CF92DF92EF92FF92F3
:103510000F931F93DF93CF9300D00F92CDB7DEB7F9
:103520006C0149835A836B837C833901EE24FF2429
:1035300087012E010894411C511C812CE2E09E2E33
:10354000A12CB12C49815A816B817C81C6019201E9
:1035500002DF882339F1D501C401F601058404C0D6
:10356000880F991FAA1FBB1F0A94D2F7E80EF91EF5
:103570000A1F1B1F29813A814B815C818789803119
:1035800031F4285F3F4F40405040E0F205C0285FD3
:103590003F4F4F4F5F40B0F2F301E082F182028370
:1035A000138381E00F900F900F900F90CF91DF91D8
:1035B0001F910F91FF90EF90DF90CF90BF90AF9051
:1035C0009F908F907F906F905F904F9008952F9273
:1035D0003F924F925F926F927F928F929F92AF92A3
:1035E000BF92CF92DF92EF92FF920F931F93DF93E0
:1035F000CF93CDB7DEB72F970FB6F894DEBF0FBECF
:10360000CDBF1C014A875B876C877D873F872E87EC
:10361000DC0119968D919D910D90BC91A02D019684
:10362000A11DB11D8E839F83A887B987F9010081F1
:10363000118122813381011511052105310549F0E0
:10364000480159010894811C911CA11CB11C1D82C8
:1036500010C0D1018D909D90AD90BC901D828A8547
:103660009B85AC85BD850197A105B10511F491E05D
:103670009D83750164014424552432018E010F5F3E
:103680001F4FF10181859285A385B485481659069F
:103690006A067B0608F08CC08E819F81A885B9855B
:1036A0008C159D05AE05BF0550F4A2E08A2E912C25
:1036B000A12CB12CF2E0CF2ED12CE12CF12CC101A8
:1036C000B701A601980147DE882309F471C08981FA
:1036D0009A81AB81BC81A70196012F5F3F4F4F4F6D
:1036E0005F4F0097A105B10519F049015A010DC0BE
:1036F000281939094A095B098A859B85AC85BD85EE
:10370000281739074A075B0759F00894411C511CD8
:10371000611C711C0894C11CD11CE11CF11CB1CFAF
:10372000C101A601B7010FEF1FEF2FEF3FE08DDDC5
:10373000882391F43DC026013701089441085108BF
:1037400061087108C101B301A201970186017DDD05
:10375000882371F1730162018C149D04AE04BF04CF
:1037600050F3AE85BF854D915D916D917C91411572
:1037700051056105710531F0C1019501840165DDD7
:103780008823B1F0EE85FF8580829182A282B38288
:10379000FD81FF2359F00894811C911CA11CB11CD0
:1037A000D1018D929D92AD92BC92139781E001C0A0
:1037B00080E02F960FB6F894DEBF0FBECDBFCF913D
:1037C000DF911F910F91FF90EF90DF90CF90BF900E
:1037D000AF909F908F907F906F905F904F903F90B1
:1037E0002F900895DB010D900020E9F71197A61B9B
:1037F000B70B0496AD010C94DA72DF93CF930F925E
:10380000CDB7DEB769830496BE016F5F7F4F41E09D
:1038100050E00E94DA720F90CF91DF910895FF92ED
:103820000F931F93CF93DF938B010E9467E3EB010C
:10383000FF24FA9409C00E9467E36C1B7D0B60179C
:10384000710710F080E008C0FEBC0DB407FEFDCF8C
:103850008EB58F3F81F781E0DF91CF911F910F915E
:10386000FF900895FC014281242F30E0C901959515
:10387000879580658CBD40FF02C080E004C080E079
:10388000463009F081E08DBD808160E00C94EDE46C
:10389000DF92EF92FF920F931F93CF93DF93EC0190
:1038A000D62E79018A01DEDFCE016CE271E0B7DF4E
:1038B0008D2D80648EBD0DB407FEFDCF28E130E074
:1038C000D801C701022E04C0B695A7959795879594
:1038D0000A94D2F78EBD0DB407FEFDCF28503040BC
:1038E0008FEF283F380761F7DD2011F485E906C026
:1038F00088E0D81611F487E801C08FEF8EBD0DB4B3
:1039000007FEFDCF8CE0D81631F48FEF8EBD0DB4DD
:1039100007FEFDCF8EB59FEF2FEF2EBD0DB407FE36
:10392000FDCF8EB587FF04C0992311F09150F5CFDC
:103930008B83DF91CF911F910F91FF90EF90DF90DC
:103940000895FC01808161E00C94EDE4DC016EBD22
:10395000FA0120E030E00DB407FEFDCF80818EBD7E
:103960000DB407FEFDCF81818EBD2E5F3F4F329695
:1039700082E02030380779F70DB407FEFDCF8FEFD6
:103980008EBD0DB407FEFDCF8FEF8EBD0DB407FECB
:10399000FDCF8FEF8EBD0DB407FEFDCF8EB5139614
:1039A0008C9313978F71853011F481E0089583E132
:1039B00011968C931197CD01C4DF80E00895CF92CA
:1039C000DF92EF92FF920F931F93CF93DF93EC015F
:1039D0007A018B0169018C81833039F059E0EE0C5A
:1039E000FF1C001F111F5A95D1F7CE0168E1A801F5
:1039F00097014EDF882311F086E020C0CE016EEFE4
:103A0000A601A4DF8823D9F0CE0168E572E007DFC4
:103A1000882311F487E112C0CE016DE020E030E090
:103A200040E050E035DF882341F48FEF8EBD0DB4C8
:103A300007FEFDCF8EB5882371F086E18983CE0124
:103A400080DF80E0DF91CF911F910F91FF90EF9089
:103A5000DF90CF900895CE0174DF81E0F3CFBF9265
:103A6000CF92DF92EF92FF920F931F93CF93DF934A
:103A7000EC016B017A010E9467E38B01BB24BA94CD
:103A800009C00E9467E3601B710B6D52714010F01A
:103A900081E10BC0BEBC0DB407FEFDCF8EB58B839C
:103AA0008F3F79F38E3F31F08FE08983CE0149DF7C
:103AB00080E02EC0D7011197EF28D9F08FEF8EBD8F
:103AC00020E030E09FEF0BC00DB407FEFDCF8EB5B8
:103AD000F601E20FF31F80839EBD2F5F3F4F2A1731
:103AE0003B0790F30DB407FEFDCF8EB5AC0DBD1DA9
:103AF0008C938FEF8EBD0DB407FEFDCF8EB58FEF8B
:103B00008EBD0DB407FEFDCF8EB5CE011ADF81E06C
:103B1000DF91CF911F910F91FF90EF90DF90CF90A9
:103B2000BF900895CF92DF92EF92FF920F931F9371
:103B3000CF93DF93EC017A018B0169018C81833093
:103B400039F0A9E0EE0CFF1C001F111FAA95D1F758
:103B5000CE0161E1A80197019BDE882331F084E06A
:103B60008983CE01EEDE80E005C0CE01B60140E0E3
:103B700052E075DFDF91CF911F910F91FF90EF9091
:103B8000DF90CF900895BF92CF92DF92EF92FF9295
:103B90000F931F93CF93DF93EC01B62E1C821982F3
:103BA00048830E9467E36B01888161E00E943AE4E8
:103BB000CE01C7DE82E360E00E943AE483E361E085
:103BC0000E943AE484E361E00E943AE485E361E024
:103BD0000E943AE485E361E00E94EDE485E08A8397
:103BE00082E58CBD1DBC80E09FEF9EBD0DB407FE3D
:103BF000FDCF8F5F8A30C9F709C00E9467E36C1957
:103C00007D09615D774010F081E059C0CE0160E030
:103C100020E030E040E050E03BDE182F8B83813025
:103C200061F7CE0168E02AEA31E040E050E030DEA2
:103C300082FF02C01C8311C080E02FEF2EBD0DB4A7
:103C400007FEFDCF9EB58F5F8430C1F79B839A3A04
:103C500011F082E034C082E08C838C81823021F0CC
:103C6000EE24FF2487010FC0E12CF12C012D00E48C
:103C7000102F09C00E9467E36C197D09615D7740D0
:103C800010F08AE01CC0CE0167E320E030E040E0A5
:103C900050E0FEDDCE0169E2A8019701F9DD8B83DA
:103CA000882341F78C81823019F5CE016AE320E048
:103CB00030E040E050E0ECDD882329F088E08983A3
:103CC000CE013FDE20C08FEF8EBD0DB407FEFDCFCD
:103CD0008EB5807C803C11F483E08C8380E09FEF84
:103CE0009EBD0DB407FEFDCF2EB58F5F8330C1F7AB
:103CF000CE0127DE86E08B1518F488E1898303C0A6
:103D0000BA8281E001C080E0DF91CF911F910F91D5
:103D1000FF90EF90DF90CF90BF900895E2E0F2E047
:103D200007C08091C00085FFFCCF31969093C600FC
:103D300090819923B1F78091C00085FFFCCF8AE084
:103D40008093C600E5E5F4E0949108C08091C0003E
:103D500085FFFCCF9093C600319694919923B1F7DB
:103D6000659B03C0EBE1F2E00AC0E0E2F2E007C0CD
:103D70008091C00085FFFCCF31969093C600908162
:103D80009923B1F78091C00085FFFCCF8AE0809332
:103D9000C600EDE4F4E0949108C08091C00085FF76
:103DA000FCCF9093C600319694919923B1F7649B10
:103DB00003C0EBE1F2E00AC0E0E2F2E007C080916C
:103DC000C00085FFFCCF31969093C6009081992367
:103DD000B1F78091C00085FFFCCF8AE08093C600D8
:103DE000E5E4F4E0949108C08091C00085FFFCCF29
:103DF0009093C600319694919923B1F78091030175
:103E000081FF03C0EBE1F2E00AC0E0E2F2E007C0AC
:103E10008091C00085FFFCCF31969093C6009081C1
:103E20009923B1F78091C00085FFFCCF8AE0809391
:103E3000C600EDE3F4E0949108C08091C00085FFD6
:103E4000FCCF9093C600319694919923B1F780915D
:103E5000030180FF03C0EBE1F2E00AC0E0E2F2E020
:103E600007C08091C00085FFFCCF31969093C600BB
:103E700090819923B1F78091C00085FFFCCF8AE043
:103E80008093C600E5E3F4E0949108C08091C000FF
:103E900085FFFCCF9093C600319694919923B1F79A
:103EA0004B9B03C0EBE1F2E00AC0E0E2F2E007C0A6
:103EB0008091C00085FFFCCF31969093C600908121
:103EC0009923B1F78091C00085FFFCCF8AE08093F1
:103ED000C600EDE2F4E0949108C08091C00085FF37
:103EE000FCCF9093C600319694919923B1F74A9BE9
:103EF00003C0EBE1F2E00AC0E0E2F2E007C080912B
:103F0000C00085FFFCCF31969093C6009081992325
:103F1000B1F78091C00085FFFCCF8AE08093C60096
:103F20000895EF92FF920F931F93CF93DF93EC01CD
:103F3000E090450BF090460B0091470B1091480B19
:103F4000688179818A819B81A80197010E94FBEA9F
:103F5000882324F4E882F9820A831B83E090490BCA
:103F6000F0904A0B00914B0B10914C0B6C817D81B2
:103F70008E819F81A80197010E94FBEA882324F487
:103F8000EC82FD820E831F8360914D0B70914E0B6E
:103F900080914F0B9091500B20E030E040E050E0DA
:103FA0000E9422EA7B018C01688579858A859B8540
:103FB000A80197010E94FBEA882324F4E886F98689
:103FC0000A871B87E0909B04F0909C0400919D045D
:103FD00010919E04688179818A819B81A801970153
:103FE0000E9409ED181624F4E882F9820A831B83E3
:103FF000E0909F04F090A0040091A1041091A2040D
:104000006C817D818E819F81A80197010E9409EDBD
:10401000181624F4EC82FD820E831F83E090A30423
:10402000F090A4040091A5041091A60468857985F8
:104030008A859B85A80197010E9409ED181624F432
:10404000E886F9860A871B87DF91CF911F910F9130
:10405000FF90EF9008958091660B0895EF92FF9284
:104060000F931F937B018C018091280B882349F1CA
:10407000C801B70120E030E040E050E00E94FBEAD8
:104080008823F9F0C801B70120E030E040E05FE3A9
:104090000E94DBED7B018C012BED3FE049E450E415
:1040A0000E94DBEDA80197010E94DBED9B01AC01B2
:1040B00060E070E080E89FE30E9402EBE62F692F4A
:1040C00004C0E0E070E080E86FE32E2F372F482F28
:1040D000562FB901CA011F910F91FF90EF900895DB
:1040E00060918B0470918C0480918D0490918E046A
:1040F000B5DF609393047093940480939504909338
:10410000960460918F047091900480919104909135
:104110009204A4DF609397047093980480939904A9
:1041200090939A0408950F931F93CF93DF93813058
:10413000910549F46F5F7F4F09F046C084E998E02C
:104140000E94715E41C0892B09F03EC06F5F7F4FB6
:10415000D9F58FE095E090935F0A80935E0A809195
:10416000650A882321F082E69AE00E94E46ECAE1A3
:10417000DAE00FE015E005C06F9788E0C43ED8078D
:1041800051F0198308838F818823B1F3CE010496FF
:104190000E94E46EF1CF8FE095E0998388838F8150
:1041A000882321F0CE0104960E94E46E8FE095E012
:1041B0009093C4088093C3088091CA08882321F093
:1041C00087EC98E00E94E46EDF91CF911F910F91F0
:1041D000089580E090E06FEF7FEFA5CF81E090E061
:1041E0006FEF7FEFA0CF0E946A8A8091660B8823D1
:1041F00009F03AC081E08093660B8091690B909141
:104200006A0BA0916B0BB0916C0B80936D0B90932C
:104210006E0BA0936F0BB093700BEFE2F1E09491F3
:1042200008C08091C00085FFFCCF9093C6003196F6
:1042300094919923B1F7E6E4F1E0949108C080915C
:10424000C00085FFFCCF9093C600319694919923CE
:10425000B1F78091C00085FFFCCF8AE08093C60053
:104260008CE391E00C94AAD1089582E892E00E9438
:10427000AAD15F988A989FB7F894E8E0F1E080812E
:104280008E7F80839FBF129847980895CF93DF93C6
:10429000F8940E946A8A5F9A1092510B8A9A10923F
:1042A000520B8FB7F8949091080191609093080198
:1042B0008FBF1092530B129A479AEFE2F1E094915C
:1042C00008C08091C00085FFFCCF9093C600319656
:1042D00094919923B1F7E5ECF1E0949108C08091B5
:1042E000C00085FFFCCF9093C6003196949199232E
:1042F000B1F78091C00085FFFCCF8AE08093C600B3
:104300008CEB91E00E94B8D17894C5E0D0E008C071
:1043100068EC70E080E090E00E9475E30E94E8D4D1
:1043200021978FEFCF3FD80799F7F894FFCF0E94DE
:1043300067E36093730B7093740B8093750B90938A
:10434000760BE0919C0BF0919D0BE256F44F80812F
:104350008823A9F4E4EEF1E0949108C08091C000B4
:1043600085FFFCCF9093C600319694919923B1F7C5
:104370008091C00085FFFCCF8AE08093C60008953D
:104380000E9467E36093730B7093740B8093750BBB
:104390009093760B08956F927F928F929F92AF9237
:1043A000BF92CF92DF92EF92FF920F931F93F82E5E
:1043B00060917B0B70917C0B80917D0B90917E0BBB
:1043C00020917F0B3091800B4091810B5091820B9B
:1043D0000E9416ED3B014C0100D000D00DB71EB776
:1043E0000F5F1F4F6091830470918404882777FDCD
:1043F0008095982F0E949DEB2091BD043091BE04C2
:104400004091BF045091C0040E94DBED20E030E0F9
:1044100040E752E40E9402EB20E030E048EC52E436
:104420000E9402EB5B016C01F80160827182828262
:104430009382F4828091580B858389E29BE067E840
:104440007BE04BE75BE020E001E032E0E32E0E94FE
:10445000ED5E8091870B9091880BA091890BB091B4
:104460008A0B8093290B90932A0BA0932B0BB0936C
:104470002C0B80918B0B90918C0BA0918D0BB0919C
:104480008E0B80932D0B90932E0BA0932F0BB0933C
:10449000300B80918F0B9091900BA091910BB0916C
:1044A000920B8093310B9093320BA093330BB0930C
:1044B000340B8091930B9091940BA091950BB0913C
:1044C000960B8093350B9093360BA093370BB093DC
:1044D000380B8DB79EB706960FB6F8949EBF0FBEE9
:1044E0008DBF0E9467E36093730B7093740B80938E
:1044F000750B9093760B1F910F91FF90EF90DF90CB
:10450000CF90BF90AF909F908F907F906F900895C5
:10451000CF92DF92EF92FF920F931F9387E89BE079
:1045200000DD0E9467E36093730B7093740B8093BC
:10453000750B9093760B6091290B70912A0B8091EB
:104540002B0B90912C0B2091870B3091880B409175
:10455000890B50918A0B0E94FBEA882309F07AC0EC
:1045600060912D0B70912E0B80912F0B9091300B41
:1045700020918B0B30918C0B40918D0B50918E0BB9
:104580000E94FBEA882309F065C06091BD04709128
:10459000BE048091BF049091C00420E030E040E769
:1045A00052E40E9402EB7B018C0187E89BE06BE800
:1045B0007BE04FE85BE023E93BE0E8E5CE2EEBE073
:1045C000DE2E0E944F7D8091870B9091880BA091E9
:1045D000890BB0918A0B8093290B90932A0BA0939F
:1045E0002B0BB0932C0B80918B0B90918C0BA0918B
:1045F0008D0BB0918E0B80932D0B90932E0BA0936F
:104600002F0BB093300B80918F0B9091900BA0915A
:10461000910BB091920B8093310B9093320BA0933E
:10462000330BB093340B8091930B9091940BA0912A
:10463000950BB091960B8093350B9093360BA0930E
:10464000370BB093380B1F910F91FF90EF90DF90D5
:10465000CF9008956091830470918404882777FD3A
:104660008095982F0E949DEB2091BD043091BE044F
:104670004091BF045091C0040E94DBED20E030E087
:1046800040E752E40E9402EB20E030E048EC52E4C4
:1046900088CF88E896E00E948715E7EEF1E09491D4
:1046A00008C08091C00085FFFCCF9093C600319672
:1046B00094919923B1F74091690B50916A0B6091E5
:1046C0006B0B70916C0B4F5F5F4F6F4F7F4F88E8A4
:1046D00096E02AE030E00E9445168091C00085FFF8
:1046E000FCCF8AE08093C60022CE2F923F924F9259
:1046F0005F926F927F928F929F92AF92BF92CF9272
:10470000DF92EF92FF920F931F93DF93CF9300D02E
:104710000F92CDB7DEB79C838B838330910508F071
:10472000ABC1FC01E25FFD4FD4905C01AA0CBB1C45
:10473000AA0CBB1C99E2892E9BE0992E8A0C9B1C2B
:1047400080E090E0A0E0B0E0F40180839183A28358
:10475000B38389E29BE06DE27BE041E35BE025E32C
:104760003BE00E944978F501EF5EFD4FE590F59042
:10477000059114916D2D772767FD7095882777FD3A
:104780008095982F0E949DEB2B013C0187E8282EF5
:104790008BE0382E2A0C3B1CC801B70120E030E02A
:1047A00040EC5FE30E94DBEDA30192010E94DBED90
:1047B000D1016D937D938D939C931397F501E359EC
:1047C000FB4FFA83E98360817181828193816093D9
:1047D000BD047093BE048093BF049093C00420E096
:1047E00030E040E752E40E9402EB7B018C0187E855
:1047F0009BE06BE87BE04FE85BE023E93BE0B8E55A
:10480000CB2EBBE0DB2E0E944F7D0E94626580E0D4
:1048100090E0A0E0B0E0F40180839183A283B383B1
:1048200089E29BE06DE27BE041E35BE025E33BE076
:104830000E9449788DE192E0A80EB91EF50185909D
:104840009590A590B490C501B4019058A301920130
:104850000E94DBEDD1016D937D938D939C93139713
:104860006091BD047091BE048091BF049091C0041A
:1048700020E030E040E752E40E9402EB7B018C0133
:1048800087E89BE06BE87BE04FE85BE023E93BE0F7
:104890000E944F7D0E946265C501B401A50194018B
:1048A0000E9422EAA30192010E94DBEDF1016083E4
:1048B000718382839383EB81FC81EE0FFF1FE358AA
:1048C000FB4F0190F081E02D1E161F06D4F4BF01AE
:1048D000882777FD8095982F0E949DEB9B01AC0166
:1048E000A981BA816D917D918D919C910E9402EB7D
:1048F0006093BD047093BE048093BF049093C00482
:1049000028C0E981FA81608171818281938120E0F0
:1049100030E040E251E40E9402EB6093BD047093EA
:10492000BE048093BF049093C004EAE2F2E007C0A3
:104930008091C00085FFFCCF31969093C600908196
:104940009923B1F78091C00085FFFCCF8AE0809366
:10495000C6006091BD047091BE048091BF04909127
:10496000C00420E030E040E752E40E9402EB7B010B
:104970008C0187E89BE06BE87BE04FE85BE023E994
:104980003BE0E8E5CE2EEBE0DE2E0E944F7D0E945C
:104990006265CB80DC80CC0CDD1CCC0CDD1CF60110
:1049A000E75DFD4F6591759185919491F601E75C06
:1049B000F44F80809180A280B380A50194010E9471
:1049C00022EA7B018C01F601E75DF44FCB01D801AF
:1049D00080839183A283B383F601EB5CFD4F6591E5
:1049E000759185919491A5E46A2EABE07A2E6C0CBA
:1049F0007D1CA50194010E9422EAD3016D937D9351
:104A00008D939C931397F601EF5BFD4F6591759124
:104A100085919491FBE96F2EF4E07F2E6C0C7D1C48
:104A2000A50194010E9422EAF301608371838283CD
:104A3000938387E89BE0C80ED91EC701D801F60111
:104A400080839183A283B38380E090E0A0E0B0E014
:104A50008093BD049093BE04A093BF04B093C004A0
:104A60000E94CE628B819C818F5A944F9C838B8352
:104A700081E0AB81BC818C930F900F900F900F90D1
:104A8000CF91DF911F910F91FF90EF90DF90CF902A
:104A9000BF90AF909F908F907F906F905F904F905E
:104AA0003F902F90089540919C0B50919D0B20E6D4
:104AB00030E0B901469F9001479F300D569F300D61
:104AC0001124682F772767FD7095C9018E55944F83
:104AD0000E9431129C019093270D8093260D80E057
:104AE000232B09F081E00895E9E9F2E0949108C0F0
:104AF0008091C00085FFFCCF9093C60031969491C1
:104B00009923B1F78091C00085FFFCCF8AE08093A4
:104B1000C60084E998E00E94225EEBE8F2E09491FE
:104B200008C08091C00085FFFCCF9093C6003196ED
:104B300094919923B1F78091C00085FFFCCF8AE062
:104B40008093C6000895CF93DF93C091260DD09136
:104B5000270D2496CE016AE270E00E943112FC011A
:104B6000009709F0108284E998E0BE0141E021E05D
:104B70000E941C5ADF91CF910895CF93DF938091CB
:104B8000260D9091270D04966AE270E00E94311282
:104B9000EC01009701F120919C0B30919D0B80E678
:104BA00090E0AC01249FC001259F900D349F900D93
:104BB00011248E55944F6EE470E00E94311260E231
:104BC00070E00E9431129C012F5F3F4F3093270D00
:104BD0002093260D18826091260D7091270D6C5F31
:104BE0007F4F84E998E040E021E00E941C5ADF9169
:104BF000CF910895CF93DF93809197088823D9F1BF
:104C000084E998E060E00E94C0528091260D909166
:104C1000270D04966AE270E00E943112EC010097C1
:104C200001F120919C0B30919D0B80E690E0AC014E
:104C3000249FC001259F900D349F900D11248E5507
:104C4000944F6EE470E00E94311260E270E00E94C6
:104C500031129C012F5F3F4F3093270D2093260D7B
:104C600018826091260D7091270D6C5F7F4F84E94B
:104C700098E00E94AB53DF91CF910895CF93DF93DB
:104C80008091260D9091270D05966AE270E00E94B2
:104C90003112EC01009701F120919C0B30919D0B9A
:104CA00080E690E0AC01249FC001259F900D349FC9
:104CB000900D11248E55944F6EE470E00E943112D5
:104CC00060E270E00E9431129C012F5F3F4F3093F1
:104CD000270D2093260D18826091260D7091270DC7
:104CE0006B5F7F4F84E998E00E941B5EDF91CF915C
:104CF0000895CF92DF92EF92FF920F931F93DF936D
:104D0000CF93CDB7DEB76E970FB6F894DEBF0FBE68
:104D1000CDBF0E9467E36093620B7093630B809337
:104D2000640B9093650B20915E0B30915F0B40916B
:104D3000600B5091610B621B730B840B950B28EE7B
:104D400033E040E050E00E94F3EEF22EE32ED42E4A
:104D5000C52E2DB73EB7285030400FB6F8943EBF51
:104D60000FBE2DBF0DB71EB70F5F1F4FCE010196AF
:104D7000EDB7FEB79283818389EA92E0F8019383CD
:104D800082836F2D7E2D842F952F2CE330E040E021
:104D900050E00E94F3EEF801358324836F2D7E2DC1
:104DA0008D2D9C2D2CE330E040E050E00E94F3EE8E
:104DB000F801778366830E946912E6E3F1E094913B
:104DC0002DB73EB7285F3F4F0FB6F8943EBF0FBEDA
:104DD0002DBF08C08091C00085FFFCCF9093C60016
:104DE000319694919923B1F7FE01319607C08091D5
:104DF000C00085FFFCCF31969093C6009081992327
:104E0000B1F78091C00085FFFCCF8AE08093C60097
:104E1000CE0101960E94BED18091F40D882321F12C
:104E20001092F40D8091580BE82EFF24EE0CFF1C1D
:104E300083EE92E1E80EF91EF70160817181882707
:104E400077FD8095982F0E949DEB2091CB043091A7
:104E5000CC044091CD045091CE040E9409ED181667
:104E60001CF4F701118210826E960FB6F894DEBF23
:104E70000FBECDBFCF91DF911F910F91FF90EF90AB
:104E8000DF90CF900895FC01949108C08091C000FC
:104E900085FFFCCF9093C600319694919923B1F78A
:104EA00088E896E022E030E00C944B17FC019491E6
:104EB00008C08091C00085FFFCCF9093C60031965A
:104EC00094919923B1F788E896E02AE030E00C94B9
:104ED00029160E946A8A0E946265129A479A0E9465
:104EE000716510925A0B1092590B68EE73E080E0D6
:104EF00090E00E9475E31092B7048FE193E00E9466
:104F0000AAD10C94E8D4EAE2F4E0949108C080912C
:104F1000C00085FFFCCF9093C600319694919923F1
:104F2000B1F74091290B50912A0B60912B0B709196
:104F30002C0B88E896E022E030E00E944B17E6E276
:104F4000F4E0949108C08091C00085FFFCCF90935D
:104F5000C600319694919923B1F740912D0B509151
:104F60002E0B60912F0B7091300B88E896E022E0B9
:104F700030E00E944B17E2E2F4E0949108C0809187
:104F8000C00085FFFCCF9093C60031969491992381
:104F9000B1F74091310B5091320B6091330B70910E
:104FA000340B88E896E022E030E00E944B17EEE1F7
:104FB000F4E0949108C08091C00085FFFCCF9093ED
:104FC000C600319694919923B1F74091350B5091D9
:104FD000360B6091370B7091380B88E896E022E031
:104FE00030E00E944B17E3E1F4E0949108C0809117
:104FF000C00085FFFCCF9093C60031969491992311
:10500000B1F780E00E9429630E949DEB2091940DEE
:105010003091950D4091960D5091970D0E9402EBA5
:10502000AB01BC0188E896E022E030E00E944B171B
:10503000EFE0F4E0949108C08091C00085FFFCCFC0
:105040009093C600319694919923B1F781E00E9424
:1050500029630E949DEB2091980D3091990D40910C
:105060009A0D50919B0D0E9402EBAB01BC0188E8A8
:1050700096E022E030E00E944B17EBE0F4E09491E0
:1050800008C08091C00085FFFCCF9093C600319688
:1050900094919923B1F782E00E9429630E949DEBCD
:1050A00020919C0D30919D0D40919E0D50919F0D32
:1050B0000E9402EBAB01BC0188E896E022E030E000
:1050C0000E944B17EAE6F2E007C08091C00085FF1E
:1050D000FCCF31969093C60090819923B1F78091CF
:1050E000C00085FFFCCF8AE08093C60008958091C0
:1050F000260D9091270D019660E070E04AE050E0A7
:105100000C948D1080919708882399F083E5CBDC6F
:10511000882379F0ECDFAB01BC014093170B50936F
:10512000180B8093190B70931A0B82E69AE00C947B
:10513000CB6D0895FF920F931F93CF93DF938091D0
:105140009608882311F00E946265C091260DD091C7
:10515000270D2496CE0161E270E00E943112009783
:1051600011F48E0103C08C010F5F1F4FCE016AE264
:1051700070E00E943112FC01009709F0108280E576
:1051800092DC882311F4FF240AC0FF248091260DAD
:105190009091270D8017910710F4FF24F3948091CC
:1051A0009708882391F121E02F2584E998E0B80140
:1051B00041E00E941C5A83E576DC8823B1F080919F
:1051C000260D9091270D8017910778F490DFAB01A1
:1051D000BC014093170B5093180B8093190B7093DD
:1051E0001A0B82E69AE00E94CB6D84E998E00E9457
:1051F0008D51FF2051F40E9467E360935E0B709322
:105200005F0B8093600B9093610BDF91CF911F91A7
:105210000F91FF9008958091260D9091270D019692
:1052200060E070E00C94300FCF93DF93EC0180913D
:10523000580B8093680B84E536DC882309F481C021
:10524000EADF0E946FEB262F6093680B623008F450
:1052500078C0E6E3F1E0949108C08091C00085FF3A
:10526000FCCF9093C600319694919923B1F7CD3637
:10527000D105C1F0CE36D10544F4C836D105C1F010
:10528000C936D10509F04DC010C0CA3DD10539F06D
:10529000CD3DD10509F045C0EBE6F2E03FC0E2E8C4
:1052A000F2E031C0E9E9F2E023C0E0EBF2E015C042
:1052B000E7ECF2E007C08091C00085FFFCCF31969B
:1052C0009093C60090819923B1F72BC08091C000C4
:1052D00085FFFCCF31969093C60090819923B1F75A
:1052E00020C08091C00085FFFCCF31969093C6000E
:1052F00090819923B1F715C08091C00085FFFCCF44
:1053000031969093C60090819923B1F70AC080919D
:10531000C00085FFFCCF31969093C6009081992301
:10532000B1F788E896E0622F40E050E00E94341622
:105330008091C00085FFFCCF8AE08093C60081E0A9
:1053400001C080E0DF91CF910895BF92CF92DF92AC
:10535000EF92FF920F931F93CF93DF9389E690E034
:1053600063DF882309F02EC1E3EDF2E0949108C0D9
:105370008091C00085FFFCCF9093C6003196949138
:105380009923B1F7E091680BF0E0EE0FFF1FEE0FED
:10539000FF1FE351FD4E408151816281738188E896
:1053A00096E021E030E00E944B17E0EDF2E09491AE
:1053B00008C08091C00085FFFCCF9093C600319655
:1053C00094919923B1F7E091680BF0E0EE0FFF1F85
:1053D000ED51FD4E60817181882777FD8095982F72
:1053E0000E949DEBAB01BC0188E896E021E030E033
:1053F0000E944B17ECECF2E0949108C08091C00041
:1054000085FFFCCF9093C600319694919923B1F714
:105410004091F7125091F8126091F9127091FA12BE
:1054200088E896E021E030E00E944B17E9ECF2E0DA
:10543000949108C08091C00085FFFCCF9093C60076
:10544000319694919923B1F76091E7127091E81227
:10545000882777FD8095982F0E949DEBAB01BC01BA
:1054600088E896E021E030E00E944B1743EEE42EFE
:1054700042E1F42E0DEE12E1C0E0D0E0E6ECF2E005
:10548000B490E4ECF2E0C490E1ECF2E0D4909B2D17
:10549000E6ECF2E008C08091C00085FFFCCF90935D
:1054A000C600319694919923B1F788E896E0BE0141
:1054B0004AE050E00E9478169C2DE4ECF2E008C02F
:1054C0008091C00085FFFCCF9093C60031969491E7
:1054D0009923B1F7F801408151816281738188E895
:1054E00096E021E030E00E944B179D2DE1ECF2E0C8
:1054F00008C08091C00085FFFCCF9093C600319614
:1055000094919923B1F7F701619171917F018827F7
:1055100077FD8095982F0E949DEBAB01BC0188E838
:1055200096E021E030E00E944B1721960C5F1F4F60
:10553000C230D10509F0ABCFEDEBF2E0949108C099
:105540008091C00085FFFCCF9093C6003196949166
:105550009923B1F78091680B0E94AE89BC0188E85D
:1055600096E04AE050E00E947816E8EBF2E0949171
:1055700008C08091C00085FFFCCF9093C600319693
:1055800094919923B1F78FEF9FEF0E94AE89BC01F0
:1055900088E896E04AE050E00E947816EAE6F2E0F9
:1055A00007C08091C00085FFFCCF31969093C60064
:1055B00090819923B1F78091C00085FFFCCF8AE0EC
:1055C0008093C600DF91CF911F910F91FF90EF90D4
:1055D000DF90CF90BF900895AF92BF92CF92DF92AD
:1055E000EF92FF920F931F93CF93DF9379E2E72E11
:1055F0007BE0F72EC7E8DBE000E010E0F801ED5EAD
:10560000FA4F808150DA882331F105DE5B016C01AD
:10561000F801EE5DF44F8081882311F061E002C053
:105620006091970B70E0882777FD8095982F0E94F6
:105630009DEBF70120813181428153810E94DBED96
:105640009B01AC01C601B5010E9422EA68837983FF
:105650008A839B8309C0F70180819181A281B381F4
:1056600088839983AA83BB830F5F1F4F84E090E0F8
:10567000E80EF91E24960430110509F0BFCF86E428
:1056800012DA8823D9F0C7DD7B018C016093980B77
:105690007093990B80939A0B90939B0B20E030E0D2
:1056A00040E050E00E9409ED181644F4E092BD0479
:1056B000F092BE040093BF041093C004DF91CF9119
:1056C0001F910F91FF90EF90DF90CF90BF90AF9020
:1056D00008958091660B882319F47EDF0C9488224C
:1056E00008957ADF89E4DFD9882351F094DD60934F
:1056F0007B0B70937C0B80937D0B90937E0B0CC087
:1057000080E090E0A0E0B0E080937B0B90937C0B76
:10571000A0937D0BB0937E0B8AE4C5D9882351F00A
:105720007ADD60937F0B7093800B8093810B909355
:10573000820B089580E090E0A0E0B0E080937F0BC2
:105740009093800BA093810BB093820B08951F93CD
:10575000182F8091660B882321F4C3DF812F0E94CC
:10576000CB211F9108958091BD049091BE04A0911A
:10577000BF04B091C0048093220D9093230DA09399
:10578000240DB093250D809183049091840490930F
:10579000270B8093260B84E690E0909384048093FB
:1057A00083040E9467E36093730B7093740B809380
:1057B000750B9093760B81E00E94D5628091290B46
:1057C00090912A0BA0912B0BB0912C0B8093870BFF
:1057D0009093880BA093890BB0938A0B80912D0B2B
:1057E00090912E0BA0912F0BB091300B80938B0BCF
:1057F00090938C0BA0938D0BB0938E0B8091310BFB
:105800009091320BA091330BB091340B80938F0B9E
:105810009093900BA093910BB093920B80E090E04B
:10582000A0E0B0E08093BD049093BE04A093BF04B9
:10583000B093C00488E537D9882351F489E533D97A
:10584000882331F48AE52FD9882311F481E001C03F
:1058500080E08093C104882321F488E524D988233B
:1058600021F080E090E00E9475238091C10488239C
:1058700021F489E518D9882321F081E090E00E9485
:10588000752388E510D98823C9F031DC61157105CD
:105890008105910599F0BFDC2091390B30913A0BCD
:1058A00040913B0B50913C0B0E9422EA6093290BE4
:1058B00070932A0B80932B0B90932C0B89E5F3D8D4
:1058C0008823C9F014DC611571058105910599F0F3
:1058D000A2DC20913D0B30913E0B40913F0B50914B
:1058E000400B0E9422EA60932D0B70932E0B809345
:1058F0002F0B9093300B8091C104882321F48AE50B
:10590000D2D8882321F082E090E00E9475238AE5B6
:10591000CAD88823C9F0EBDB6115710581059105B3
:1059200099F079DC2091410B3091420B4091430B6F
:105930005091440B0E9422EA6093310B7093320B1A
:105940008093330B9093340B89E29BE06DE27BE014
:1059500041E35BE025E33BE00E94497880E00E9460
:10596000D5628091220D9091230DA091240DB091CC
:10597000250D8093BD049093BE04A093BF04B09303
:10598000C0048091260B9091270B90938404809300
:1059900083040E9467E36093730B7093740B80938E
:1059A000750B9093760B0C94CE62EF92FF920F934F
:1059B0001F93CF93DF9385E476D8882311F40E9458
:1059C0006265C0E0D0E0EE24FF24FE01ED5EFA4FF8
:1059D000808169D8882369F1C330D10571F41BDC5B
:1059E0006093350B7093360B8093370B9093380B85
:1059F00085E39BE00E942C781CC00DDC8701075DCD
:105A0000144FF701E75CF44F2081318142815381CB
:105A10000E9422EAF801608371838283938389E282
:105A20009BE06DE27BE041E35BE025E33BE00E942D
:105A30004978219684E090E0E80EF91EC430D10543
:105A400021F6DF91CF911F910F91FF90EF90089574
:105A5000CF92DF92EF92FF920F931F93CF93DF933A
:105A600083E521D88823D1F1D6DB0E946AEB7B0144
:105A70008C016B0180E517D8882361F0F7FC0AC020
:105A80008FEFE816F10409F02CF4C5DB0E946AEBF5
:105A9000EB0102C0CDE0D0E0E7E1F5E0808191814B
:105AA0008C179D07D9F0329685E0E535F807B1F7F8
:105AB000C930D10529F4D0925A0BC092590B02C0BB
:105AC000D7FD0CC08C2F61E00E943AE48C2F6C2D26
:105AD0000E94EDE48C2FB6010E944EE5DF91CF913C
